{
  "_format": "hh-sol-artifact-1",
  "contractName": "AmazonCoin",
  "sourceName": "contracts/QueppelinCoin.sol",
  "abi": [
    {
      "inputs": [],
      "stateMutability": "nonpayable",
      "type": "constructor"
    },
    {
      "anonymous": false,
      "inputs": [
        {
          "indexed": true,
          "internalType": "address",
          "name": "owner",
          "type": "address"
        },
        {
          "indexed": true,
          "internalType": "address",
          "name": "spender",
          "type": "address"
        },
        {
          "indexed": false,
          "internalType": "uint256",
          "name": "value",
          "type": "uint256"
        }
      ],
      "name": "Approval",
      "type": "event"
    },
    {
      "anonymous": false,
      "inputs": [
        {
          "indexed": true,
          "internalType": "address",
          "name": "previousOwner",
          "type": "address"
        },
        {
          "indexed": true,
          "internalType": "address",
          "name": "newOwner",
          "type": "address"
        }
      ],
      "name": "OwnershipTransferred",
      "type": "event"
    },
    {
      "anonymous": false,
      "inputs": [
        {
          "indexed": true,
          "internalType": "address",
          "name": "from",
          "type": "address"
        },
        {
          "indexed": true,
          "internalType": "address",
          "name": "to",
          "type": "address"
        },
        {
          "indexed": false,
          "internalType": "uint256",
          "name": "value",
          "type": "uint256"
        }
      ],
      "name": "Transfer",
      "type": "event"
    },
    {
      "stateMutability": "payable",
      "type": "fallback"
    },
    {
      "inputs": [
        {
          "internalType": "address",
          "name": "owner",
          "type": "address"
        },
        {
          "internalType": "address",
          "name": "spender",
          "type": "address"
        }
      ],
      "name": "allowance",
      "outputs": [
        {
          "internalType": "uint256",
          "name": "",
          "type": "uint256"
        }
      ],
      "stateMutability": "view",
      "type": "function"
    },
    {
      "inputs": [
        {
          "internalType": "address",
          "name": "spender",
          "type": "address"
        },
        {
          "internalType": "uint256",
          "name": "amount",
          "type": "uint256"
        }
      ],
      "name": "approve",
      "outputs": [
        {
          "internalType": "bool",
          "name": "",
          "type": "bool"
        }
      ],
      "stateMutability": "nonpayable",
      "type": "function"
    },
    {
      "inputs": [
        {
          "internalType": "address",
          "name": "account",
          "type": "address"
        }
      ],
      "name": "balanceOf",
      "outputs": [
        {
          "internalType": "uint256",
          "name": "",
          "type": "uint256"
        }
      ],
      "stateMutability": "view",
      "type": "function"
    },
    {
      "inputs": [],
      "name": "decimals",
      "outputs": [
        {
          "internalType": "uint8",
          "name": "",
          "type": "uint8"
        }
      ],
      "stateMutability": "view",
      "type": "function"
    },
    {
      "inputs": [
        {
          "internalType": "address",
          "name": "spender",
          "type": "address"
        },
        {
          "internalType": "uint256",
          "name": "subtractedValue",
          "type": "uint256"
        }
      ],
      "name": "decreaseAllowance",
      "outputs": [
        {
          "internalType": "bool",
          "name": "",
          "type": "bool"
        }
      ],
      "stateMutability": "nonpayable",
      "type": "function"
    },
    {
      "inputs": [
        {
          "internalType": "address",
          "name": "spender",
          "type": "address"
        },
        {
          "internalType": "uint256",
          "name": "addedValue",
          "type": "uint256"
        }
      ],
      "name": "increaseAllowance",
      "outputs": [
        {
          "internalType": "bool",
          "name": "",
          "type": "bool"
        }
      ],
      "stateMutability": "nonpayable",
      "type": "function"
    },
    {
      "inputs": [
        {
          "internalType": "uint256",
          "name": "amount",
          "type": "uint256"
        }
      ],
      "name": "mint",
      "outputs": [],
      "stateMutability": "payable",
      "type": "function"
    },
    {
      "inputs": [],
      "name": "name",
      "outputs": [
        {
          "internalType": "string",
          "name": "",
          "type": "string"
        }
      ],
      "stateMutability": "view",
      "type": "function"
    },
    {
      "inputs": [],
      "name": "owner",
      "outputs": [
        {
          "internalType": "address",
          "name": "",
          "type": "address"
        }
      ],
      "stateMutability": "view",
      "type": "function"
    },
    {
      "inputs": [],
      "name": "renounceOwnership",
      "outputs": [],
      "stateMutability": "nonpayable",
      "type": "function"
    },
    {
      "inputs": [],
      "name": "symbol",
      "outputs": [
        {
          "internalType": "string",
          "name": "",
          "type": "string"
        }
      ],
      "stateMutability": "view",
      "type": "function"
    },
    {
      "inputs": [],
      "name": "totalSupply",
      "outputs": [
        {
          "internalType": "uint256",
          "name": "",
          "type": "uint256"
        }
      ],
      "stateMutability": "view",
      "type": "function"
    },
    {
      "inputs": [
        {
          "internalType": "address",
          "name": "to",
          "type": "address"
        },
        {
          "internalType": "uint256",
          "name": "amount",
          "type": "uint256"
        }
      ],
      "name": "transfer",
      "outputs": [
        {
          "internalType": "bool",
          "name": "",
          "type": "bool"
        }
      ],
      "stateMutability": "nonpayable",
      "type": "function"
    },
    {
      "inputs": [
        {
          "internalType": "address",
          "name": "from",
          "type": "address"
        },
        {
          "internalType": "address",
          "name": "to",
          "type": "address"
        },
        {
          "internalType": "uint256",
          "name": "amount",
          "type": "uint256"
        }
      ],
      "name": "transferFrom",
      "outputs": [
        {
          "internalType": "bool",
          "name": "",
          "type": "bool"
        }
      ],
      "stateMutability": "nonpayable",
      "type": "function"
    },
    {
      "inputs": [
        {
          "internalType": "address",
          "name": "newOwner",
          "type": "address"
        }
      ],
      "name": "transferOwnership",
      "outputs": [],
      "stateMutability": "nonpayable",
      "type": "function"
    },
    {
      "stateMutability": "payable",
      "type": "receive"
    }
  ],
  "bytecode": "0x60806040523480156200001157600080fd5b506040518060400160405280600e81526020017f5175657070656c696e20436f696e0000000000000000000000000000000000008152506040518060400160405280600281526020017f5143000000000000000000000000000000000000000000000000000000000000815250816003908051906020019062000096929190620001a6565b508060049080519060200190620000af929190620001a6565b505050620000d2620000c6620000d860201b60201c565b620000e060201b60201c565b620002bb565b600033905090565b6000600560009054906101000a900473ffffffffffffffffffffffffffffffffffffffff16905081600560006101000a81548173ffffffffffffffffffffffffffffffffffffffff021916908373ffffffffffffffffffffffffffffffffffffffff1602179055508173ffffffffffffffffffffffffffffffffffffffff168173ffffffffffffffffffffffffffffffffffffffff167f8be0079c531659141344cd1fd0a4f28419497f9722a3daafe3b4186f6b6457e060405160405180910390a35050565b828054620001b49062000285565b90600052602060002090601f016020900481019282620001d8576000855562000224565b82601f10620001f357805160ff191683800117855562000224565b8280016001018555821562000224579182015b828111156200022357825182559160200191906001019062000206565b5b50905062000233919062000237565b5090565b5b808211156200025257600081600090555060010162000238565b5090565b7f4e487b7100000000000000000000000000000000000000000000000000000000600052602260045260246000fd5b600060028204905060018216806200029e57607f821691505b60208210811415620002b557620002b462000256565b5b50919050565b611a1280620002cb6000396000f3fe6080604052600436106100ec5760003560e01c8063715018a61161008a578063a457c2d711610059578063a457c2d7146102f3578063a9059cbb14610330578063dd62ed3e1461036d578063f2fde38b146103aa576100f3565b8063715018a61461026a5780638da5cb5b1461028157806395d89b41146102ac578063a0712d68146102d7576100f3565b806323b872dd116100c657806323b872dd14610188578063313ce567146101c557806339509351146101f057806370a082311461022d576100f3565b806306fdde03146100f5578063095ea7b31461012057806318160ddd1461015d576100f3565b366100f357005b005b34801561010157600080fd5b5061010a6103d3565b6040516101179190611045565b60405180910390f35b34801561012c57600080fd5b5061014760048036038101906101429190611100565b610465565b604051610154919061115b565b60405180910390f35b34801561016957600080fd5b50610172610488565b60405161017f9190611185565b60405180910390f35b34801561019457600080fd5b506101af60048036038101906101aa91906111a0565b610492565b6040516101bc919061115b565b60405180910390f35b3480156101d157600080fd5b506101da6104c1565b6040516101e7919061120f565b60405180910390f35b3480156101fc57600080fd5b5061021760048036038101906102129190611100565b6104ca565b604051610224919061115b565b60405180910390f35b34801561023957600080fd5b50610254600480360381019061024f919061122a565b610501565b6040516102619190611185565b60405180910390f35b34801561027657600080fd5b5061027f610549565b005b34801561028d57600080fd5b5061029661055d565b6040516102a39190611266565b60405180910390f35b3480156102b857600080fd5b506102c1610587565b6040516102ce9190611045565b60405180910390f35b6102f160048036038101906102ec9190611281565b610619565b005b3480156102ff57600080fd5b5061031a60048036038101906103159190611100565b610679565b604051610327919061115b565b60405180910390f35b34801561033c57600080fd5b5061035760048036038101906103529190611100565b6106f0565b604051610364919061115b565b60405180910390f35b34801561037957600080fd5b50610394600480360381019061038f91906112ae565b610713565b6040516103a19190611185565b60405180910390f35b3480156103b657600080fd5b506103d160048036038101906103cc919061122a565b61079a565b005b6060600380546103e29061131d565b80601f016020809104026020016040519081016040528092919081815260200182805461040e9061131d565b801561045b5780601f106104305761010080835404028352916020019161045b565b820191906000526020600020905b81548152906001019060200180831161043e57829003601f168201915b5050505050905090565b60008061047061081e565b905061047d818585610826565b600191505092915050565b6000600254905090565b60008061049d61081e565b90506104aa8582856109f1565b6104b5858585610a7d565b60019150509392505050565b60006012905090565b6000806104d561081e565b90506104f68185856104e78589610713565b6104f1919061137e565b610826565b600191505092915050565b60008060008373ffffffffffffffffffffffffffffffffffffffff1673ffffffffffffffffffffffffffffffffffffffff168152602001908152602001600020549050919050565b610551610cfe565b61055b6000610d7c565b565b6000600560009054906101000a900473ffffffffffffffffffffffffffffffffffffffff16905090565b6060600480546105969061131d565b80601f01602080910402602001604051908101604052809291908181526020018280546105c29061131d565b801561060f5780601f106105e45761010080835404028352916020019161060f565b820191906000526020600020905b8154815290600101906020018083116105f257829003601f168201915b5050505050905090565b655af3107a40008161062b91906113d4565b341461066c576040517f08c379a00000000000000000000000000000000000000000000000000000000081526004016106639061147a565b60405180910390fd5b6106763382610e42565b50565b60008061068461081e565b905060006106928286610713565b9050838110156106d7576040517f08c379a00000000000000000000000000000000000000000000000000000000081526004016106ce9061150c565b60405180910390fd5b6106e48286868403610826565b60019250505092915050565b6000806106fb61081e565b9050610708818585610a7d565b600191505092915050565b6000600160008473ffffffffffffffffffffffffffffffffffffffff1673ffffffffffffffffffffffffffffffffffffffff16815260200190815260200160002060008373ffffffffffffffffffffffffffffffffffffffff1673ffffffffffffffffffffffffffffffffffffffff16815260200190815260200160002054905092915050565b6107a2610cfe565b600073ffffffffffffffffffffffffffffffffffffffff168173ffffffffffffffffffffffffffffffffffffffff161415610812576040517f08c379a00000000000000000000000000000000000000000000000000000000081526004016108099061159e565b60405180910390fd5b61081b81610d7c565b50565b600033905090565b600073ffffffffffffffffffffffffffffffffffffffff168373ffffffffffffffffffffffffffffffffffffffff161415610896576040517f08c379a000000000000000000000000000000000000000000000000000000000815260040161088d90611630565b60405180910390fd5b600073ffffffffffffffffffffffffffffffffffffffff168273ffffffffffffffffffffffffffffffffffffffff161415610906576040517f08c379a00000000000000000000000000000000000000000000000000000000081526004016108fd906116c2565b60405180910390fd5b80600160008573ffffffffffffffffffffffffffffffffffffffff1673ffffffffffffffffffffffffffffffffffffffff16815260200190815260200160002060008473ffffffffffffffffffffffffffffffffffffffff1673ffffffffffffffffffffffffffffffffffffffff168152602001908152602001600020819055508173ffffffffffffffffffffffffffffffffffffffff168373ffffffffffffffffffffffffffffffffffffffff167f8c5be1e5ebec7d5bd14f71427d1e84f3dd0314c0f7b2291e5b200ac8c7c3b925836040516109e49190611185565b60405180910390a3505050565b60006109fd8484610713565b90507fffffffffffffffffffffffffffffffffffffffffffffffffffffffffffffffff8114610a775781811015610a69576040517f08c379a0000000000000000000000000000000000000000000000000000000008152600401610a609061172e565b60405180910390fd5b610a768484848403610826565b5b50505050565b600073ffffffffffffffffffffffffffffffffffffffff168373ffffffffffffffffffffffffffffffffffffffff161415610aed576040517f08c379a0000000000000000000000000000000000000000000000000000000008152600401610ae4906117c0565b60405180910390fd5b600073ffffffffffffffffffffffffffffffffffffffff168273ffffffffffffffffffffffffffffffffffffffff161415610b5d576040517f08c379a0000000000000000000000000000000000000000000000000000000008152600401610b5490611852565b60405180910390fd5b610b68838383610fa2565b60008060008573ffffffffffffffffffffffffffffffffffffffff1673ffffffffffffffffffffffffffffffffffffffff16815260200190815260200160002054905081811015610bee576040517f08c379a0000000000000000000000000000000000000000000000000000000008152600401610be5906118e4565b60405180910390fd5b8181036000808673ffffffffffffffffffffffffffffffffffffffff1673ffffffffffffffffffffffffffffffffffffffff16815260200190815260200160002081905550816000808573ffffffffffffffffffffffffffffffffffffffff1673ffffffffffffffffffffffffffffffffffffffff1681526020019081526020016000206000828254610c81919061137e565b925050819055508273ffffffffffffffffffffffffffffffffffffffff168473ffffffffffffffffffffffffffffffffffffffff167fddf252ad1be2c89b69c2b068fc378daa952ba7f163c4a11628f55a4df523b3ef84604051610ce59190611185565b60405180910390a3610cf8848484610fa7565b50505050565b610d0661081e565b73ffffffffffffffffffffffffffffffffffffffff16610d2461055d565b73ffffffffffffffffffffffffffffffffffffffff1614610d7a576040517f08c379a0000000000000000000000000000000000000000000000000000000008152600401610d7190611950565b60405180910390fd5b565b6000600560009054906101000a900473ffffffffffffffffffffffffffffffffffffffff16905081600560006101000a81548173ffffffffffffffffffffffffffffffffffffffff021916908373ffffffffffffffffffffffffffffffffffffffff1602179055508173ffffffffffffffffffffffffffffffffffffffff168173ffffffffffffffffffffffffffffffffffffffff167f8be0079c531659141344cd1fd0a4f28419497f9722a3daafe3b4186f6b6457e060405160405180910390a35050565b600073ffffffffffffffffffffffffffffffffffffffff168273ffffffffffffffffffffffffffffffffffffffff161415610eb2576040517f08c379a0000000000000000000000000000000000000000000000000000000008152600401610ea9906119bc565b60405180910390fd5b610ebe60008383610fa2565b8060026000828254610ed0919061137e565b92505081905550806000808473ffffffffffffffffffffffffffffffffffffffff1673ffffffffffffffffffffffffffffffffffffffff1681526020019081526020016000206000828254610f25919061137e565b925050819055508173ffffffffffffffffffffffffffffffffffffffff16600073ffffffffffffffffffffffffffffffffffffffff167fddf252ad1be2c89b69c2b068fc378daa952ba7f163c4a11628f55a4df523b3ef83604051610f8a9190611185565b60405180910390a3610f9e60008383610fa7565b5050565b505050565b505050565b600081519050919050565b600082825260208201905092915050565b60005b83811015610fe6578082015181840152602081019050610fcb565b83811115610ff5576000848401525b50505050565b6000601f19601f8301169050919050565b600061101782610fac565b6110218185610fb7565b9350611031818560208601610fc8565b61103a81610ffb565b840191505092915050565b6000602082019050818103600083015261105f818461100c565b905092915050565b600080fd5b600073ffffffffffffffffffffffffffffffffffffffff82169050919050565b60006110978261106c565b9050919050565b6110a78161108c565b81146110b257600080fd5b50565b6000813590506110c48161109e565b92915050565b6000819050919050565b6110dd816110ca565b81146110e857600080fd5b50565b6000813590506110fa816110d4565b92915050565b6000806040838503121561111757611116611067565b5b6000611125858286016110b5565b9250506020611136858286016110eb565b9150509250929050565b60008115159050919050565b61115581611140565b82525050565b6000602082019050611170600083018461114c565b92915050565b61117f816110ca565b82525050565b600060208201905061119a6000830184611176565b92915050565b6000806000606084860312156111b9576111b8611067565b5b60006111c7868287016110b5565b93505060206111d8868287016110b5565b92505060406111e9868287016110eb565b9150509250925092565b600060ff82169050919050565b611209816111f3565b82525050565b60006020820190506112246000830184611200565b92915050565b6000602082840312156112405761123f611067565b5b600061124e848285016110b5565b91505092915050565b6112608161108c565b82525050565b600060208201905061127b6000830184611257565b92915050565b60006020828403121561129757611296611067565b5b60006112a5848285016110eb565b91505092915050565b600080604083850312156112c5576112c4611067565b5b60006112d3858286016110b5565b92505060206112e4858286016110b5565b9150509250929050565b7f4e487b7100000000000000000000000000000000000000000000000000000000600052602260045260246000fd5b6000600282049050600182168061133557607f821691505b60208210811415611349576113486112ee565b5b50919050565b7f4e487b7100000000000000000000000000000000000000000000000000000000600052601160045260246000fd5b6000611389826110ca565b9150611394836110ca565b9250827fffffffffffffffffffffffffffffffffffffffffffffffffffffffffffffffff038211156113c9576113c861134f565b5b828201905092915050565b60006113df826110ca565b91506113ea836110ca565b9250817fffffffffffffffffffffffffffffffffffffffffffffffffffffffffffffffff04831182151516156114235761142261134f565b5b828202905092915050565b7f696e76616c696420616d6f756e74206f66206574686572000000000000000000600082015250565b6000611464601783610fb7565b915061146f8261142e565b602082019050919050565b6000602082019050818103600083015261149381611457565b9050919050565b7f45524332303a2064656372656173656420616c6c6f77616e63652062656c6f7760008201527f207a65726f000000000000000000000000000000000000000000000000000000602082015250565b60006114f6602583610fb7565b91506115018261149a565b604082019050919050565b60006020820190508181036000830152611525816114e9565b9050919050565b7f4f776e61626c653a206e6577206f776e657220697320746865207a65726f206160008201527f6464726573730000000000000000000000000000000000000000000000000000602082015250565b6000611588602683610fb7565b91506115938261152c565b604082019050919050565b600060208201905081810360008301526115b78161157b565b9050919050565b7f45524332303a20617070726f76652066726f6d20746865207a65726f2061646460008201527f7265737300000000000000000000000000000000000000000000000000000000602082015250565b600061161a602483610fb7565b9150611625826115be565b604082019050919050565b600060208201905081810360008301526116498161160d565b9050919050565b7f45524332303a20617070726f766520746f20746865207a65726f20616464726560008201527f7373000000000000000000000000000000000000000000000000000000000000602082015250565b60006116ac602283610fb7565b91506116b782611650565b604082019050919050565b600060208201905081810360008301526116db8161169f565b9050919050565b7f45524332303a20696e73756666696369656e7420616c6c6f77616e6365000000600082015250565b6000611718601d83610fb7565b9150611723826116e2565b602082019050919050565b600060208201905081810360008301526117478161170b565b9050919050565b7f45524332303a207472616e736665722066726f6d20746865207a65726f20616460008201527f6472657373000000000000000000000000000000000000000000000000000000602082015250565b60006117aa602583610fb7565b91506117b58261174e565b604082019050919050565b600060208201905081810360008301526117d98161179d565b9050919050565b7f45524332303a207472616e7366657220746f20746865207a65726f206164647260008201527f6573730000000000000000000000000000000000000000000000000000000000602082015250565b600061183c602383610fb7565b9150611847826117e0565b604082019050919050565b6000602082019050818103600083015261186b8161182f565b9050919050565b7f45524332303a207472616e7366657220616d6f756e742065786365656473206260008201527f616c616e63650000000000000000000000000000000000000000000000000000602082015250565b60006118ce602683610fb7565b91506118d982611872565b604082019050919050565b600060208201905081810360008301526118fd816118c1565b9050919050565b7f4f776e61626c653a2063616c6c6572206973206e6f7420746865206f776e6572600082015250565b600061193a602083610fb7565b915061194582611904565b602082019050919050565b600060208201905081810360008301526119698161192d565b9050919050565b7f45524332303a206d696e7420746f20746865207a65726f206164647265737300600082015250565b60006119a6601f83610fb7565b91506119b182611970565b602082019050919050565b600060208201905081810360008301526119d581611999565b905091905056fea264697066735822122023c6b32a0934a539c3744a49a96926453628e564ea3181a558a42dd0432156d664736f6c63430008090033",
  "linkReferences": {},
  "deployedLinkReferences": {}
}